:020000040800F2
:1000000000500020512C0008691E00086B1E0008DB
:100010006D1E00086F1E0008711E00080000000021
:10002000000000000000000000000000731E000837
:10003000751E000800000000771E0008791E0008E9
:10004000992C0008992C0008992C0008992C00087C
:10005000992C0008992C0008992C0008992C00086C
:10006000992C0008992C0008992C0008992C00085C
:10007000992C0008992C0008992C0008992C00084C
:10008000992C0008992C0008992C0008891E00085A
:100090007D1E0008992C0008992C0008992C000856
:1000A000992C00088D1E0008992C0008992C000836
:1000B000991E0008992C0008992C0008992C00081A
:1000C000992C0008992C0008992C0008992C0008FC
:1000D000992C0008992C0008992C0008992C0008EC
:1000E000992C0008992C0008992C000800000000A9
:1000F0000000000000000000000000000000000000
:0C01000000000000000000005FF808F1A3
:10010C0010B5054C237833B9044B13B10448AFF345
:10011C0000800123237010BD70000020000000003F
:10012C00C83C000808B5034B1BB103490348AFF3A7
:10013C00008008BD0000000074000020C83C0008CE
:10014C0038B50E4B054618784FF47A73B3FBF0F3C1
:10015C000B4A1068B0FBF3F000F042FB044658B9B0
:10016C000F2D09D8024629464FF0FF3000F0F6FA61
:10017C00044B20461D6038BD012038BD0000002016
:10018C000800002004000020074A08B5136803206B
:10019C0043F01003136000F0CFFA0020FFF7D0FFFC
:1001AC0001F082FD002008BD00200240034A044BF0
:1001BC0011681B780B441360704700BFB00100201E
:1001CC0000000020014B1868704700BFB0010020F0
:1001DC0038B50446FFF7F6FF0546631C1EBF044BFB
:1001EC001B78E418FFF7EEFF401B8442FAD838BDA9
:1001FC000000002038B5044600286ED090F820305E
:10020C000BB901F073FD2268136823F0020313602D
:10021C00FFF7D8FF054623685A68910751D41A682E
:10022C0042F001021A60FFF7CDFF054623685A68B9
:10023C00D20754D5227E0020012A1A680CBF42F046
:10024C00800222F080021A60627E012A1A680CBFBA
:10025C0042F0400222F040021A60A27E012A1A6883
:10026C000CBF42F0200222F020021A60E27E012A2A
:10027C001A680CBF22F0100242F010021A60227FA2
:10028C00012A1A680CBF42F0080222F008021A6018
:10029C00627F012A1A680CBF42F0040222F00402A9
:1002AC001A60E168A2680A4321690A4361690A433A
:1002BC00616801390A43DA610123606284F82030F5
:1002CC0038BDFFF77FFF401B0A28A4D9636A43F4AB
:1002DC0000336362052384F82030012038BDFFF71A
:1002EC0071FF401B0A28A1D9F0E790F8203070B5B7
:1002FC00013B012B5FD8012403684869D3F8002225
:10030C0042F00102C3F8002200F01F0204FA02F2CC
:10031C00D443D3F81C522540C3F81C52CD6985BB7D
:10032C00D3F80C52CE682540C3F80C528D8803EBE1
:10033C00C00045EA0645C0F840528E680D8845EA73
:10034C000645C0F84452886968BBD3F804022040C3
:10035C00C3F80402086950BBD3F814022040C3F858
:10036C001402096A0020012902BFD3F81C120A43A7
:10037C00C3F81C22D3F8002222F00102C3F8002299
:10038C0070BD012DDFD1D3F80C520E681543C3F8A4
:10039C000C528D8803EBC00045EA0645C0F840526C
:1003AC008E688D89CBE7D3F804021043D0E7D3F8DD
:1003BC0014021043D3E7436A43F4802343620120C1
:1003CC0070BD38B590F820300446012B1FD10223A4
:1003DC00026880F82030136823F001031360FFF7E4
:1003EC00F1FE05462368586810F0010001D16062E7
:1003FC0038BDFFF7E7FE401B0A28F3D9636A43F4C4
:10040C0000336362052384F82030012038BD436A31
:10041C0043F400234362F8E7F0B590F82040013C28
:10042C00012C6BD8066841B9F468A40707D1436A5C
:10043C0043F4001343620120F0BD3469F5E70C016D
:10044C003519D5F8B07107F004079760002F4BD120
:10045C00D5F8B0717F0D1760D5F8B071264407F050
:10046C000207D760D5F8B47107F00F071761D5F8FC
:10047C00B471D5F8B451C7F307272D0C97615561AA
:10048C00D6F8B8211A7002682244D2F8B821120AA0
:10049C005A7002682244D2F8B821120C9A70026881
:1004AC002244D2F8B821120EDA7002682244D2F833
:1004BC00BC211A7102682244D2F8BC21120A5A716A
:1004CC0002682244D2F8BC21120C9A7102681444BE
:1004DC00D4F8BC21120EDA71036851B9DA6842F013
:1004EC002002DA600020F0BDD5F8B071FF0857602B
:1004FC00B2E71A6942F020021A61F3E7436A43F447
:10050C00802397E790F82030013B012B05D8026837
:10051C0000205369194351617047436A43F48023A7
:10052C0043620120704770477047704770477047AF
:10053C007047704770477047704770472DE9F84F08
:10054C00036805465E69D3F8049016F001049F68B1
:10055C00D3F80CB0D3F810A0D3F8188022D017F031
:10056C00010407D00122B9079A6040F1A38001F081
:10057C0025FB0024FB0509D54FF480722B68B805C8
:10058C009A6040F1A5802846FFF7CDFFFB0309D503
:10059C004FF480322B68B8039A6040F1A78028464C
:1005AC00FFF7C2FF330707D51BF0100F1FBF102238
:1005BC002B6844F40074DA60770708D51BF0080F39
:1005CC0005D008222B682846DA60FFF7B1FFB00788
:1005DC0006D52B68DB68990702D0284601F0F0FAA3
:1005EC00720607D51AF0100F1FBF10222B6844F4A7
:1005FC0080641A61B30608D51AF0080F05D00822DA
:10060C002B6828461A61FFF795FFF70606D52B686D
:10061C001B69980702D02846FFF78BFFB10308D55A
:10062C0019F0100F05D010222B6828465A60FFF7DE
:10063C0082FFF20308D519F0080F05D008222B68A9
:10064C0028465A60FFF778FF33042AD519F0040FB7
:10065C002A6824D0F70504D518F0010F18BF44F010
:10066C000104B00504D518F0020F18BF44F00204C1
:10067C00710504D518F0040F18BF44F004043305B9
:10068C000DD518F070030AD0302B4CD03CD8102B61
:10069C0043D0202B44D0936923F07003936104233F
:1006AC0053602CB16B6A28461C436C62FFF745FF04
:1006BC00BDE8F88F7A0705D417F0080405D1FFF7C9
:1006CC0034FF57E74FF4006454E74FF4805451E77C
:1006DC00790502D544F4005458E73A0502D544F4A0
:1006EC00804453E72846FFF721FF4FE7790302D5F3
:1006FC0044F4004456E73A0302D544F4803451E7FD
:10070C002846FFF714FF4DE7502B0FD0602B10D06D
:10071C00402BC0D144F04004BDE744F00804BAE7D4
:10072C0044F01004B7E744F02004B4E744F080042C
:10073C00B1E744F48074AEE7074A0002D36800F4D2
:10074C00E06023F4E0631B041B0C43F0BF6343F431
:10075C0000330343D360704700ED00E0174B30B516
:10076C00DC68C4F30224C4F10703251D042B28BF45
:10077C000423062D4FF0010598BF002405FA03F35E
:10078C0003F1FF3388BF033C1940A14005FA04F480
:10079C00013C2240002842EA01024FEA0212A9BFA2
:1007AC0000F16040064BD2B200F56140BBBF00F0D7
:1007BC000F00D2B280F800231A5430BD00ED00E0D7
:1007CC0014ED00E0002808DB0123420900F01F00B3
:1007DC0003FA00F0014B43F82200704700E100E0FF
:1007EC000138B0F1807F0AD2F021064B064A5860DE
:1007FC0082F823100020072298601A6070470120AD
:10080C00704700BF10E000E000ED00E02DE9F74F6D
:10081C0000242646664BDFF8A8E1DFF8A8C10A6879
:10082C0032FA06F502D103B0BDE8F08F4FF00108A3
:10083C0008FA06F802EA080290457FD14D68122D9D
:10084C0000F0AA8000F28380022D00F0A28077D8FD
:10085C00002D00F08980012D00F099804FF00F09D8
:10086C00FF2A93BF824606F18045083DD0F800B0C0
:10087C0092BFB500D0F804B0AD0009FA05F82BEA28
:10088C00080804FA05F588BF00F1040A48EA0505D2
:10089C00CAF80050D1F804A01AF0805F4ED0454D34
:1008AC00444FAD6926F0030845F00105BD61BD69F3
:1008BC0008F1804805F00105019508F5803806F02F
:1008CC00030B019D4FEA8B0BD8F8085009FA0BF972
:1008DC0025EA0909384DA84263D005F58065A84280
:1008EC0061D005F58065A8425FD005F58065A8420A
:1008FC000CBF0325042505FA0BF545EA0905C8F8D4
:10090C0008501D681AF4803F14BF154395431D60B1
:10091C005D681AF4003F14BF154395435D609D68F4
:10092C001AF4801F14BF154395439D60DD681AF4BB
:10093C00001F14BF2A4325EA0202DA6001366EE773
:10094C00032D22D0112D89D1CC68043486E71B4F9E
:10095C00BD4209D012D8DFF870904D4504D009F58E
:10096C0080394D457FF47AAF8C68C4B1012C0CBF33
:10097C00C0F81080C0F8148008246FE77545F3D0D8
:10098C006545F1D0DFF84490EBE7002466E7CC68CE
:10099C0064E7CC68083461E7CC680C345EE7042467
:1009AC005CE70025A7E70125A5E70225A3E700BF23
:1009BC00000401400010024000080140000021101A
:1009CC000000311000003210000011100000221045
:1009DC008368194214BF0120002070470AB10161DD
:1009EC0070470904FBE7C3680B4214BF4161016106
:1009FC00704700002DE9F341054608B901203CE0A1
:100A0C000368DB0710D42B689F075DD42B6819078C
:100A1C0000F194802B685A0700F1BE80E869002829
:100A2C0040F02C81002028E08F4C636803F00C030D
:100A3C00042B07D0636803F00C03082B09D16368FF
:100A4C00DE0306D523689C03DDD56B68002BDAD159
:100A5C00D4E76B68B3F5803F12D1236843F480333D
:100A6C002360FFF7AFFB064623689803CBD4FFF750
:100A7C00A9FB801B6428F7D9032002B0BDE8F081E4
:100A8C009BB9236823F480332360236823F48023E9
:100A9C002360FFF797FB064623689903B3D5FFF74E
:100AAC0091FB801B6428F7D9E6E7B3F5A02F2368E8
:100ABC0003D143F480232360CFE723F480332360F6
:100ACC00236823F48023CBE7674C636813F00C0F87
:100ADC0007D0636803F00C03082B10D16368DA03AA
:100AEC000DD423689B0702D52B69012B86D1236873
:100AFC006A6923F0F80343EAC203236086E72A6994
:100B0C005A4B6AB101221A60FFF75CFB0646236858
:100B1C009F07ECD4FFF756FB801B0228F7D9ABE7F5
:100B2C001A60FFF74FFB0646236898077FF56EAFF8
:100B3C00FFF748FB801B0228F6D99DE7AA694A4CAF
:100B4C004B4BDAB101221A60FFF73CFB0646636A95
:100B5C009B070DD54FF4FA52464B1B68B3FBF2F3CF
:100B6C00019300BF019B5A1E0192002BF9D151E752
:100B7C00FFF728FB801B0228E9D97DE71A60FFF7F5
:100B8C0021FB0646636A9F077FF544AFFFF71AFB0C
:100B9C00801B0228F6D96FE7334CE369D80024D4C4
:100BAC000127E36943F08053E361E36903F0805369
:100BBC000093009B304E3368D90518D5EB68012B98
:100BCC0026D1236A43F001032362FFF7FBFA41F2BB
:100BDC0088368046236A9B073FD5002F3FF41EAF13
:100BEC00E36923F08053E36118E70027E2E73368F9
:100BFC0043F480733360FFF7E5FA80463368DA0517
:100C0C00DCD4FFF7DFFAA0EB08006428F6D933E751
:100C1C00ABB9236A41F2883823F001032362236ABB
:100C2C0023F004032362FFF7CDFA0646236A9807E4
:100C3C00D3D5FFF7C7FA801B4045F7D91CE7052B26
:100C4C00236A03D143F004032362BAE723F00103C0
:100C5C002362236A23F00403B6E7FFF7B3FAA0EB91
:100C6C000800B042B6D907E700100240000042422B
:100C7C008004424208000020007000402A4B5A6851
:100C8C001C4602F00C02082A3DD00023274E0228F5
:100C9C0033602BD1FFF796FA0746236899011FD4CE
:100CAC002B6AB3F5803F05D16268A96822F4003243
:100CBC000A436260696A62680B4322F4741213433C
:100CCC00636001233360FFF77DFA054623689A01C0
:100CDC003FF5A8AEFFF776FA401B0228F6D9CBE613
:100CEC00FFF770FAC01B0228D7D9C5E6FFF76AFADE
:100CFC00054623689B017FF595AEFFF763FA401B11
:100D0C000228F6D9B8E601283FF4B7AE58682B6A2A
:100D1C0000F480329A427FF471AE6B6A00F470106A
:100D2C00C01A18BF0120A8E6001002406000424221
:100D3C0030B5194B87B002AC03F110052246186888
:100D4C005968083303C2AB421446F7D101238DF81E
:100D5C000430022311498DF805304B6803F00C0266
:100D6C00082A17D1C3F3834206A80244DB0312F806
:100D7C00102C0CD54B680A48C3F34043504306AAC9
:100D8C00134413F8143CB0FBF3F007B030BD054826
:100D9C005043FAE70248F8E7E03C00080010024034
:100DAC0000127A0000093D002DE9F0410D46044681
:100DBC0010B90120BDE8F081454A136803F0070320
:100DCC008B4229D321688E0731D4CA0744D4404AB8
:100DDC00136803F007039D4267D322683D4D12F060
:100DEC00040F6ED1130706D56B68226923F4605388
:100DFC0043EAC2036B60FFF79BFF6B68364AC3F391
:100E0C000313D35CD840354B1860354B1868FFF78B
:100E1C0097F90020BDE8F081136823F007030B431A
:100E2C001360136803F007039942C2D1CAE7294B38
:100E3C0011F0040F1EBF5A6842F4E0625A600807B2
:100E4C0042BF5A6842F460525A605A68A06822F055
:100E5C00F00202435A60B8E762681E4E012A3368FA
:100E6C001BD113F4003FA4D0736841F2883823F0EF
:100E7C00030313437360FFF7A5F9074673686268B1
:100E8C0003F00C03B3EB820FA1D0FFF79BF9C01B4F
:100E9C004045F3D90320BDE8F081022A02D113F0BA
:100EAC00007FE0E713F0020FDDE7136823F0070380
:100EBC002B431360136803F007039D427FF479AF53
:100ECC008BE76B68E16823F4E0630B436B6089E7A5
:100EDC000020024000100240613D00080800002084
:100EEC0004000020044B054A5B68C3F30223D35C67
:100EFC00034A1068D840704700100240713D00084A
:100F0C0008000020044B054A5B68C3F3C223D35C82
:100F1C00034A1068D840704700100240713D000829
:100F2C000800002003680020DA6842F00102DA6051
:100F3C009A6802F00702062A1EBF1A6842F00102E4
:100F4C001A6070477047704770477047036810B558
:100F5C001A69044691070ED5DA6892070BD56FF023
:100F6C0002021A6101229B6902779B0777D0FFF777
:100F7C00EAFF0023237723681A69500710D5DA6833
:100F8C0051070DD56FF004021A6102229B6922777A
:100F9C0013F4407F204668D0FFF7D5FF002323775A
:100FAC0023681A6912070FD5DA6810070CD56FF091
:100FBC0008021A610422DB692277990720465AD06D
:100FCC00FFF7C1FF0023237723681A69D20610D5D7
:100FDC00DA68D0060DD56FF010021A610822DB69B1
:100FEC00227713F4407F20464BD0FFF7ACFF002351
:100FFC00237723681A69D10708D5DA68D20705D593
:10100C006FF0010220461A6100F02AFE23681A696B
:10101C00100608D5DA68110605D56FF08002204657
:10102C001A6100F044F923681A69520608D5DA6887
:10103C00500605D56FF0400220461A61FFF785FF78
:10104C0023681A69910622D5DA6892061FD56FF0CB
:10105C0020022046BDE810401A6100F027B9FFF7C6
:10106C0071FF2046FFF770FF83E7FFF76BFF204609
:10107C00FFF76AFF92E7FFF765FF2046FFF764FF73
:10108C00A0E7FFF75FFF2046FFF75EFFAFE710BD5D
:10109C001A4A036890420AD0B0F1804F07D0A2F5EB
:1010AC009432904203D002F58062904215D14A6886
:1010BC0023F070031343114A90420AD0B0F1804FD1
:1010CC0007D0A2F59432904203D002F58062904290
:1010DC0003D1CA6823F4407313434A6923F0800395
:1010EC00134303608B68C3620B688362034B9842A3
:1010FC0004BF0B690363012343617047002C01405B
:10110C0010B50446A0B190F83D3003F0FF021BB9B6
:10111C0080F83C2000F032FE0223206884F83D3039
:10112C00211DFFF7B5FF0123002084F83D3010BDD1
:10113C00012010BD10B584680A4324F47F4442EAB0
:10114C0003232343836010BD90F83C3070B5012B12
:10115C0004464FF0020019D0012384F83D002068AA
:10116C0084F83C30836823F47F4323F07703836057
:10117C000B68402B65D015D8102B0CD007D853B169
:10118C000123002084F83D3084F83C0070BD202BF6
:10119C0001D0302BF4D1826843F0070322F07002A7
:1011AC0013431AE0602B34D019D8502BE8D14A687D
:1011BC00CE68016A056A21F00A0125F00105056275
:1011CC0083690A4323F0F00343EA06138361026246
:1011DC00836823F0700343F057038360D0E7702BD0
:1011EC000CD0B3F5005FCBD1CB684A688968FFF7A8
:1011FC00A1FF2268936843F4804308E0CB684A68F7
:10120C008968FFF797FF2268936843F07703936030
:10121C00B6E74D68CE68016A21F01001016282695F
:10122C00036A22F4704223F0A00343EA051342EA56
:10123C00063282610362836823F0700343F0670314
:10124C00CBE74A68CE68016A056A21F00A0125F0ED
:10125C000105056283690A4323F0F00343EA061390
:10126C0083610262836823F0700343F04703B4E7A1
:10127C0090F83C3030B5012B4FF0020314D00468C9
:10128C0080F83D306268A3680D68496822F07002EE
:10129C0023F080030B432A436260A360012380F890
:1012AC003D30002380F83C30184630BD7047704705
:1012BC0038B505460368C1681A69192422F44052EE
:1012CC000A431A6182680069D9680243686921F48B
:1012DC00B05121F00C0102430A43DA605A69A96942
:1012EC0022F440720A435A610D4A934214D1FFF71B
:1012FC0009FE60436C686422A400B0FBF4F0B0FB00
:10130C00F2F402FB14031B013233B3FBF2F3296832
:10131C0003EB04138B6038BDFFF7E4FDE9E700BF76
:10132C0000380140F8B504460E4617461D462168A4
:10133C000B6836EA030301D10020F8BD6B1CF7D013
:10134C0095B923680320DA6822F4D072DA605A69FE
:10135C0022F001025A61202384F8393084F83A30A3
:10136C00002384F83830F8BDFEF72CFFC01B8542F3
:10137C00DDD2E6E710B5044640B390F8393003F0FF
:10138C00FF021BB980F8382000F02CFD24232268C2
:10139C0084F83930D368204623F40053D360FFF728
:1013AC0087FF236800201A6922F490421A615A6957
:1013BC0022F02A025A61DA6842F40052DA602023E1
:1013CC00E06384F8393084F83A3010BD012010BD48
:1013DC002DE9F0411F4690F839300446202B0D467C
:1013EC0090464ED1002949D0002A47D090F8383089
:1013FC00012B46D0012380F838300023C36321230E
:10140C0080F83930FEF7DEFE0646A4F82480A4F8F6
:10141C002680E38C9BB26BB93B463246402120467A
:10142C00FFF780FFA8B9202384F8380084F83930FE
:10143C00BDE8F081E38C3246013B9BB2E384A368A8
:10144C008021B3F5805F20463B460ED1FFF76AFF43
:10145C0010B10320BDE8F0812B882268C3F3080388
:10146C005360236943B90235D3E7FFF75BFF0028CC
:10147C00EFD123682A785A600135CAE70120BDE80C
:10148C00F0810220BDE8F0812DE9F04786B00446DA
:10149C000D46904600F098FD3B4FDFF80C913B4910
:1014AC00204601F047F83B462A463949684601F088
:1014BC0085FC6B460A220021204601F001F805F15B
:1014CC000A063449204601F035F83B463246494677
:1014DC00684601F073FC05F1280A6B4619220021BD
:1014EC00204600F0EDFF52462B49684601F066FCA1
:1014FC006B4623220021204600F0E2FF3B46324699
:10150C004946684601F05AFC6B4619224021204698
:10151C0000F0D6FF52462049684601F04FFC6B465E
:10152C0023224021204600F0CBFF05F132021B495B
:10153C00684601F043FC6B462D220021204600F04A
:10154C00BFFF05F13C021649684601F037FC6B46BB
:10155C002D224021204600F0B3FF98F8183053B1EB
:10156C0042461049684601F029FC6B464022002196
:10157C00204600F0A5FF204600F033FD00288ED158
:10158C0006B0BDE8F08700BFF03C0008793D0008CC
:10159C00F23C00080B490008083D0008103D00080B
:1015AC00193D0008223D0008FF3C0008283908B509
:1015BC00232922D8DFE801F0122321212121212126
:1015CC0021212121212121212121212121212121FF
:1015DC00252A2C2E30323436383B3E4101224FF432
:1015EC0080711748FFF7FAF9154801224FF40041B2
:1015FC00FFF7F4F90120FEF7EBFD012008BD1046C2
:10160C00F9E701210E48FFF7E9F9F6E70221F9E7BE
:10161C000421F7E70821F5E71021F3E72021F1E792
:10162C004021EFE78021EDE74FF40071EAE74FF43A
:10163C000041E7E74FF40051E4E74FF48041E1E764
:10164C00000C014008B501211548FFF7C1F9154BF5
:10165C001A7802F0FF0172B9134AE0B9118801310E
:10166C0089B21180118889B2312904D910800122E4
:10167C000E491A700A701A7882B10B4A68B1118837
:10168C00013189B21180118889B2312906D9002122
:10169C001180197008BD1180EDE7108008BD00BFE6
:1016AC00000801408E0000208C0000208F000020DC
:1016BC0010B514464FF0FF3392B20248FFF788FE84
:1016CC00204610BD280200200130044B80B2188047
:1016DC001A8892B2002AFBD1704700BF94000020F8
:1016EC00F8B50138254C4F1E0E18B74200D1F8BD85
:1016FC0017F8015F204605F001020121FFF76EF992
:10170C0005F0020220460221FFF768F905F00402F9
:10171C0020460421FFF762F905F008022046082153
:10172C00FFF75CF905F0100220461021FFF756F97F
:10173C0005F0200220462021FFF750F905F0400269
:10174C0020464021FFF74AF905F08002204680210F
:10175C00FFF744F900224FF400712046FFF73EF9E1
:10176C000120FFF7B1FF204601224FF40071FFF773
:10177C0035F90120FFF7A8FFB7E700BF000C0140C7
:10178C00143908B50C291AD8DFE801F00B19190720
:10179C0013171919191919190D0019461046FFF7C5
:1017AC009FFF012008BD4FF400510648FFF716F9C2
:1017BC00F7E700224FF40041F7E70122FAE7002097
:1017CC0008BD00BF000C014030B591B028220021AB
:1017DC0006A801F087FA1422002101A801F082FA70
:1017EC001023022401250B934FF4001306A80F932A
:1017FC0006940A950D94FFF7FDF80F234FF48062C1
:10180C0001930023294601A80294039304920593A3
:10181C00FFF7CAFA11B030BD2DE980488DB0FEF744
:10182C00B3FCFFF7D1FF1022002107A801F05AFAF0
:10183C00B84B4FF400519A69B74842F010029A61C4
:10184C009A69002402F010020292029A9A694FF0EF
:10185C00010842F004029A619A694FF0020902F001
:10186C0004020392039A9A694FF4807B42F00802B7
:10187C009A619B69002203F008030493049BFFF711
:10188C00ADF800224FF2FF31A448FFF7A7F8002271
:10189C004FF48071A248FFF7A1F84FF4005307A949
:1018AC009D4807930994CDF82080CDF82890FEF739
:1018BC00ADFF0F2307A99A48079308940994FEF7E4
:1018CC00A5FF4FF2FF3307A9944807930994CDF86D
:1018DC002080CDF82890FEF799FF07A9904809942D
:1018EC00CDF81CB0CDF82080CDF82890FEF78EFFF7
:1018FC0005238C4D8C4A284685E80C004FF4A02318
:10190C00AC602B61EC606C612C766C76AC76EC7612
:10191C002C776C77FEF76EFC2146102207A801F09D
:10192C00E1F9824E824B4FF47A72336028234FF4E4
:10193C00805A4FF4E137304673600193F260B46023
:10194C0034617461B46105940694FFF7D9FB07A95F
:10195C003046CDF81CA0FFF7F7FB05A930460594DF
:10196C000694FFF785FC7348734A846080E8840012
:10197C000C22C460046142618461C461FFF7FAFC0B
:10198C002146102207A801F0ADF96C4F019B4FF0D6
:10199C0080427B600A2338463A60FB6005940694CB
:1019AC00BC603C61BC61FFF7ABFB07A93846CDF8C6
:1019BC001CA0FFF7C9FB05A9384605940694FFF750
:1019CC0057FC0E235E4928464B624C618C610C60BF
:1019DC004C608C60CC600C61C1F81C80C1F820801C
:1019EC00FEF783FC2846FEF7ECFC03212846FEF7A5
:1019FC0089FDD022534B032183E814000422DC60C0
:101A0C001A619C601C75504B30469970DA7083F8E3
:101A1C00008083F80190FFF785FA3846FFF782FAC9
:101A2C00424651463D48FEF7D9FF424659463B488F
:101A3C00FEF7D4FF42464FF400413848FEF7CEFF84
:101A4C00424B434A4349444800F0F0FA424801F003
:101A5C00AFF82146404801F0B3F85F213E4801F051
:101A6C00B7F82146142207A801F03CF93A4800F0D7
:101A7C00ABFA3A4E384C3A4D3146204600F05AFDFE
:101A8C000E222B460021204600F01AFD204600F0C5
:101A9C00A8FA02460028EFD14FF480712048FEF7D7
:101AAC009DFF304D1C4E304C2B7833B100234FF43E
:101ABC00005130462B70FEF796FF6420FEF788FB32
:101ACC002A4A0021136807A801331360142201F07D
:101ADC0009F9274801F06AF92649204601F092F9E4
:101AEC002549264801F08EF92549264801F08AF946
:101AFC002549264801F086F92549264801F082F946
:101B0C002549264801F07EF92549264801F07AF945
:101B1C004AE000BF0010024000100140000C0140E0
:101B2C0000080140D4020020006400404003002063
:101B3C00002C01402802002000480040FC0200203C
:101B4C00BC0100206C020020B4010020B915000873
:101B5C008D170008245A0008A0000020235100080B
:101B6C002B3D00088F0000208402002098000020EC
:101B7C00383D00083E3D0008433D00088E02002021
:101B8C00483D0008980200204D3D0008A2020020AC
:101B9C00523D0008AC020020573D0008B602002060
:101BAC005C3D0008C0020020024A21460248FFF7B3
:101BBC006BFC79E7E4010020A000002070470000D6
:101BCC00F8B51B4C1B4D23462A4600211A48FEF73C
:101BDC0023FCA0786678277803042A6803EB062395
:101BEC00E1783B44F02A03EB016302D1134A136002
:101BFC00F8BDF12A07D1124A13600023114A137061
:101C0C00114A1370F8BDF22A06D1104A1360002352
:101C1C000F4A13700F4AF4E7D02A07D100220E4B5B
:101C2C001F705E709870D9700C4B1A70F8BD00BFA5
:101C3C00CA02002008020020D40200200402002066
:101C4C006802002096000020970000203C03002032
:101C5C009000002091000020000200209200002043
:101C6C0008B50E4A036893420CD1FFF7EBFC0C4B02
:101C7C001A6801321A601A68B2F57A7F0DD3002205
:101C8C001A6008BDB3F1804F07D1064A13889BB286
:101C9C001BB11388013B9BB2138008BD002C014083
:101CAC009C000020940000200E4B82B09A6942F0F8
:101CBC0001029A619A6902F001020092009ADA69B3
:101CCC0042F08052DA61DB69074A03F080530193DA
:101CDC00019B536823F0E06343F00073536002B040
:101CEC00704700BF001002400000014010B50446D0
:101CFC0086B01022002102A800F0F4FF22681D4BD0
:101D0C009A4235D103F5D633DA6902A942F0007252
:101D1C00DA61DA69184802F000720092009A9A6946
:101D2C0042F004029A619B6903F004030193019B46
:101D3C004FF400630293FEF769FD4FF48053029356
:101D4C0002230393032302A90B480593FEF75EFDC0
:101D5C00002213201146FEF701FD1320FEF732FD81
:101D6C00002214201146FEF7F9FC1420FEF72AFD80
:101D7C0006B010BD006400400008014007B50368C0
:101D8C00164A934214D1164B19209A6942F40062F8
:101D9C009A6100229B69114603F400630093009B37
:101DAC00FEF7DCFC1920FEF70DFD03B05DF804FB1B
:101DBC00B3F1804FF9D103F50433DA691C2042F0FA
:101DCC000102DA610022DB69114603F00103019381
:101DDC00019BFEF7C3FC1C20E5E700BF002C014073
:101DEC000010024010B5044686B01022002102A853
:101DFC0000F078FF2268174B9A4228D103F5E433A0
:101E0C00DA6902A942F48022DA61DA69124802F432
:101E1C0080220092009A9A6942F008029A619B69AA
:101E2C0003F008030193019B4FF480630293022398
:101E3C00039303230593FEF7E9FC4FF4006302932D
:101E4C00002302A9044803930493FEF7DFFC06B0B9
:101E5C0010BD00BF00480040000C01407047FEE779
:101E6C00FEE7FEE7FEE7704770477047FEF79EB946
:101E7C000148FEF763BB00BFD4020020FFF7F8BF98
:101E8C000148FFF763B800BF400300200148FFF78B
:101E9C005DB800BFFC02002070B50E4615460C461E
:101EAC00A31B9D4201DC284670BDAFF3008004F8F3
:101EBC00010BF5E708B50A4B0246196809B909493F
:101ECC0019606946186802448A4206D900F0E0FE9F
:101EDC000C2303604FF0FF3008BD1A6008BD00BF33
:101EEC0024010020840300204FF0FF3070474FF492
:101EFC00005300204B607047012070470020704752
:101F0C000F4B1A6842F001021A6059680D4A0A40D8
:101F1C005A601A6822F0847222F480321A601A68AD
:101F2C0022F480221A605A6822F4FE025A604FF49E
:101F3C001F029A604FF00062034B9A60704700BF1B
:101F4C00001002400000FFF800ED00E02DE9F7431F
:101F5C0005460026036890F8389090F8397093F88D
:101F6C0011802B68B1B21B7CF4B2D8004143686B72
:101F7C0089B201443A1901340091D2B200212846A9
:101F8C00E4B200F0FCFDA14504D90136BB19DBB26B
:101F9C009845E6D803B0BDE8F083036800211A7CAD
:101FAC0090F83830406BDB005A4300F09BBE10B504
:101FBC000446036B80F839101B689847236B204646
:101FCC00BDE810405B68184710B590F883300446A4
:101FDC000BB1FFF7E2FF2046BDE810400021FFF7F0
:101FEC00E6BF38B50446FFF7B1FF94F8395094F8C2
:101FFC00381023680D445B7CEDB2AB4204D820460C
:10200C0000F0EEFD002038BD94F8833013B120466B
:10201C00FFF7C3FF20462946FFF7C9FF012038BD53
:10202C0001230370004870472801002030B585B0AB
:10203C000D46009309491346094A044600F0F4FD85
:10204C000DF10F00FFF7ECFF9DF80F2001460095F6
:10205C00044B204600F006FC05B030BDB92A000840
:10206C00AF290008952600084218435C507800EB15
:10207C00032080B270470020704738B50B780D46AE
:10208C0003704B78044643708B788370CB78C370A5
:10209C000B7903714B7943718B798371CB79C37154
:1020AC000B7A03724B7A43728B7A8372CB7AC3723C
:1020BC000B7B03734B7B43738B7B8373CB7BC37324
:1020CC000B7C112103742846FFF7CEFF132160828D
:1020DC002846FFF7C9FF1521A0822846FFF7C4FF49
:1020EC00E08238BD70B5847A066862183378D2B253
:1020FC00072A43FA04F506D8EBB282720120884015
:10210C000138184070BD731C03607378C4F1080467
:10211C00E4B2A3402B43083ADBB2D2B2EDE738B5B8
:10212C00002300F15405044680F85E30416590F8B8
:10213C0068102846FFF7D6FF94F8691084F85C0005
:10214C002846FFF7CFFF94F8823084F85D0084F8BE
:10215C006030B3FA83F35B0984F8613038BD10B595
:10216C00FFF7C0FF01234C1EE4B2A340C01A40B2DB
:10217C0010BD012B07D003D3022B06D0401A00E070
:10218C001044C0B270470844FBE7801AF9E7012BF2
:10219C0007D003D3022B06D0104400E00844C0B291
:1021AC007047801AFBE7401AF9E72DE9F04F044617
:1021BC000E4687B090F85A8090F85B70059294F8B0
:1021CC005C503346A5EB0805EDB2AE4228BF2B465A
:1021DC0094F86290029394F859304FFA88FA4FFAB7
:1021EC0087FB04935A464B46514694F85800FFF728
:1021FC00CEFF4B4603905A4651460498FFF7B9FF61
:10220C00059B02469BB194F8603084F88230CDF87F
:10221C000090029B0399204600F0A7F9AE420DD323
:10222C00761B0137F6B2FFB24FF00008C7E794F8FF
:10223C005F30002BF2D194F86130E6E7464484F825
:10224C005A6084F85BB007B0BDE8F08F2DE9F04F11
:10225C00044685B000F15409FFF761FF94F95D3035
:10226C0094F86A1048460293FFF779FF94F86B10C4
:10227C0083464846FFF773FF94F86C108046484637
:10228C00FFF76DFF94F95C600390002E57DD9DF80D
:10229C00085094F862A0A844C8F100084FFA88F8D6
:1022AC0053464246594694F85800FFF770FF534680
:1022BC0084F858000746424694F859005946FFF7EF
:1022CC0058FF84F85900BAF1030F5AD8DFE80AF026
:1022DC00023B4450BB190544DBB2E9B20091024603
:1022EC003946204600F0B8F948B3002384F85A3038
:1022FC0084F85B3094F866104846FFF7F3FE94F8C8
:10230C00671006464846FFF7EDFE054600223146AB
:10231C002046FFF74AFF294620460122FFF745FFDA
:10232C0001214846FFF7DEFE0028EFD194F95B301F
:10233C00029A9342DEDB94F8603084F88230039882
:10234C0005B0BDE8F08FC5F101057A1906440137D7
:10235C00FBB2F1B2D7B2C1E7C6F10106C5F1010576
:10236C00411CBA1905440137FBB2C9B2E8B2F1E716
:10237C00C6F10106411CEB190644DBB2C9B2F0B23E
:10238C00ACE701463B46A9E7C36CFF2970B503F1E6
:10239C0017030D4612D8602909D9B0F878201344D8
:1023AC00587848B31A78AA4206D1981C70BD4029B7
:1023BC00F6D9B0F87620F2E70344F1E7B0F87A40AA
:1023CC001C44264600213046FFF74EFE02210444F1
:1023DC003046FFF749FE854206F10406F2D8237811
:1023EC00607850EA032306D09D4201D1E01C70BDF9
:1023FC00A3781C44F3E7184670BDF8B51F4690F857
:10240C00623004460E461546032B07D8DFE803F06E
:10241C0002151A1E036D98470544EDB284F85860F6
:10242C0084F8595039462046FFF7AEFF20B10146DB
:10243C002046FFF70BFFC0B2F8BD036D9847361A64
:10244C00F6B2EBE7036D98472D1AE6E7036D984754
:10245C000644F5E72DE9F0471E4607460C4615469F
:10246C004FF0000A00F026FA4FF6FF784FF6FE798F
:10247C00013E7B6816F8011F3846984740450346D5
:10248C001BD04845F5D02A4621463846FFF7B5FF04
:10249C0097F86230032B05D8DFE803F002080B0D28
:1024AC000444E4B250445FFA80FAE2E70544EDB22A
:1024BC00F8E7241AF5E72D1AF9E75046BDE8F0873E
:1024CC0010B4024C446010BCFFF7C4BFB128000824
:1024DC00C36C10B533B390F9714090F9721090F849
:1024EC007D3080F87E4080F87F10DBB1012B0CD161
:1024FC0090F973309C42B8BF80F87E3090F97430FC
:10250C0099420FDD80F87F3010BD90F9702090F962
:10251C006E3013449C42B8BF80F87E309142C8BFE5
:10252C0080F87F2010BD0000014B0365704700BF91
:10253C0083200008C26C10B58A42044608D0E164BE
:10254C006430FFF79AFD2046BDE81040FFF7C0BF8E
:10255C0010BD70B490F83C409DF80C60121BC46A1E
:10256C000396A44670BCD2B2604770B490F87C401D
:10257C009DF80C50002C3AD0002B38D0012B04D9EC
:10258C00022D2BD10131C91AC9B215F0010530D178
:10259C0090F8434094422AD890F84440944226D96B
:1025AC000B44DBB28B4290F8416090F842401CD255
:1025BC008C4219D9631EDBB29E4218D2B14238BF8D
:1025CC0031469C4294BFC1EB0404C1EB0304E3B25B
:1025DC00046B0395A468A44670BC6047032D02BF2E
:1025EC000132D21AD2B2D0E731468C42E4D870BC58
:1025FC00704790F841408C42F9D890F842408C4298
:10260C00F5D91344DBB2934290F8436090F8444000
:10261C0010D294420DD9631EDBB29E42E7D2B24275
:10262C0038BF32469C4294BFC2EB0404C2EB030495
:10263C00CDE732469442DAD9EFE78A4206D283429A
:10264C0008D89A4294BF0020012070478342F8D8E2
:10265C00002070470120704770B504460D461E4699
:10266C0090F844109DF8103090F84300FFF7E5FF08
:10267C0048B133462A4694F8421094F84100BDE81C
:10268C007040FFF7DABF70BDF0B5012490F88250AE
:10269C0002F00706B440012D9DF81470E4B217D86F
:1026AC00254617D002F0F80E026892F810C0426B63
:1026BC000CFB0E1111447FB9013BDBB201330B440F
:1026CC000A782A43624001F8012B9942F8D1F0BDF7
:1026DC000025E7E70024E5E70A7801362A43624043
:1026EC00013B16F007060A70DBB20CD190F83A20C9
:1026FC00114490F88220012A0AD80BD001242546D7
:10270C00002BE9D1F0BD6D006400EDB2E4B2F7E747
:10271C000124F5E71546F3E770B590F838400168E9
:10272C00E30080F83B300A7C90F839501F2A28BF10
:10273C001F22EB00DBB2D20080F83C3080F83A204C
:10274C004A7C66199642C4BF541BE4B280F83D30F3
:10275C0003EBC40380F83E30F02380F83F308B8AC3
:10276C00F02B98BF80F83F30CB8A80F8403070BD9A
:10277C00FFF7D2BF30B490F840409DF80850A21A31
:10278C0090F83F40D2B2611AC9B23DB9013AC91AA8
:10279C00D2B2C9B2029530BCFFF7DBBE012D01BF2E
:1027AC0001F1FF31D21AC9B2D2B2F3E737B590F8C2
:1027BC00485090F8463090F8472090F84510009516
:1027CC000446FFF749FF18B984F87C0003B030BD0C
:1027DC00012394F8412084F87C3094F845309A42D7
:1027EC0038BF84F8413094F8422094F846309A422D
:1027FC0088BF84F8423094F8432094F847309A42CA
:10280C0038BF84F8433094F8442094F848309A4206
:10281C0088BF84F84430D9E7002390F83F2080F833
:10282C00433080F8413080F8422090F8403090F8E6
:10283C003E20934224BF9A1A80F8432090F83D2002
:10284C009B1A80F84430FFF7B1BF002280F8452076
:10285C0080F84720FF22036B80F8462080F8482040
:10286C005B68184770B50025C36201230446049EBB
:10287C0080F8382080F8395080F85F5080F881500B
:10288C0080F8823080F8833041633368C564066316
:10289C0098472046FFF7D9FF2046FFF745FE84F8FE
:1028AC00625070BD19B10A2901D088B270474FF639
:1028BC00FF707047002380F82630704710B404690D
:1028CC000A46A4460023202110BC604710B40469BA
:1028DC001346A4460A4610BC1721604707B502AA46
:1028EC0002F8011D0121FFF7F1FF03B05DF804FBB5
:1028FC0010B4C4680A46A4460023152110BC6047D6
:10290C0010B4C4680A46A4460023162110BC6047C4
:10291C0010B4C4681346A4460A4610BC172160477D
:10292C00002310B4C4681A46A446182110BC604792
:10293C00002310B4C4681A46A446192110BC604781
:10294C0073B505460C462178172919D003D81529DB
:10295C000DD202B070BD19291CD9FE29F9D16278AB
:10296C00292128468DF8072000F042F906E062780C
:10297C00EE688DF8072000232846B0470234E2E7C2
:10298C0063780DF10702012128468DF80730FFF717
:10299C00BFFFF3E70023EE681A4628460134B04720
:1029AC00D1E72DE9F0411546A1F1140204460E467B
:1029BC009846052A1AD8DFE802F01003030D101010
:1029CC000021FFF77BFF29462046FFF787FF0120F8
:1029DC00BDE8F0810121FFF771FF276943462A46C4
:1029EC0031462046BC46BDE8F04160470020BDE8BA
:1029FC00F08100000E292DE9F04106461746984655
:102A0C0041D00F2908D00B2948D1D2BB2549FFF75B
:102A1C0097FF0120BDE8F081FFF782FF98F80530A1
:102A2C0096F82240304604EBC30404F0FF0421095D
:102A3C0041F01001FFF75CFF04F00F013046FFF787
:102A4C0057FF98F80610304641F0B001FFF750FFE1
:102A5C0098F80450D8F80080ED00EDB22B19842BB7
:102A6C00C4BFC4F18404E5B2424629463046013F56
:102A7C00FFF74EFF17F0FF07F6D13046FFF758FF70
:102A8C00C7E70949C3E7FFF74BFF81213046FFF742
:102A9C002FFFB9083046FFF733FFEEE70020BDE803
:102AAC00F08100BF5F5A0008665A000870B50446F2
:102ABC000D461646FFF79EFF48B90A2D09D00D2D7D
:102ACC000FD0092D04D10F49204600F023F8012026
:102ADC0070BD204600F023F80B492046FFF730FF6D
:102AEC00F5E746B909492046FFF72AFF23689B7C86
:102AFC0084F82230EBE706492046FFF721FF2368D4
:102B0C00DB7CF5E7705A0008305A0008515A00086F
:102B1C00585A000801608B7C80F82230704738B519
:102B2C00002345691A4628210446A8470023E56876
:102B3C001A4614212046A847204601224B2100F0BA
:102B4C0057F8236820461A79292100F051F82046BD
:102B5C0000224B2100F04CF8236820461A792921D9
:102B6C0000F046F8204601224B2100F041F8236882
:102B7C0020465A792921BDE8384000F039B813B500
:102B8C008DF80620049A8DF8043002AB8DF80510F0
:102B9C0043F8082D846801220F21A04702B010BD14
:102BAC00002310B484681A46A446092110BC60475F
:102BBC00002310B484681A46A4460A2110BC60474E
:102BCC0010B484680A46A44600230B2110BC60474D
:102BDC0010B484680A46A44600230E2110BC60473A
:102BEC00002310B484681A46A446102110BC604718
:102BFC0010B444690023A44610BC60470020704701
:102C0C000023036080F8233080F826308361FF2393
:102C1C00044A80F824308260C2600261426180F80C
:102C2C0028307047092C0008F8B5069D17461E463B
:102C3C00FFF7E6FFC760066145618160BDE8F840BB
:102C4C00FFF7AEBF002103E00B4B5B584350043140
:102C5C000A480B4B42189A42F6D30A4A02E0002368
:102C6C0042F8043B084B9A42F9D3FFF749F900F0BC
:102C7C0015F8FEF7D1FD7047285B00080000002016
:102C8C00700000207000002084030020FEE700008C
:102C9C00014B1868704700BF0C00002070B5002570
:102CAC000C4E0D4CA41BA410A54209D101F006F842
:102CBC0000250A4E0A4CA41BA410A54205D170BDD8
:102CCC0056F8253098470135EEE756F825309847E9
:102CDC000135F2E7205B0008205B0008205B000850
:102CEC00245B000803460244934200D1704703F86A
:102CFC00011BF9E770B50E46054618B183690BB98F
:102D0C0000F03AFAAB69AC6813B9284600F034FA13
:102D1C00234B9C4217D16C68A3891B071DD52369D3
:102D2C00DBB1013EA36816F8011F013BA360E9B9B2
:102D3C00002B2EDA22460A21284600F06BF80130CF
:102D4C0011D00A2070BD174B9C4201D1AC68E3E74F
:102D5C00154B9C4208BFEC68DEE72146284600F084
:102D6C00ABF80028DDD04FF0FF3070BD002B04DA3B
:102D7C00A269934206DB0A2904D023685A1C2260FC
:102D8C001970CFE72246284600F044F80130C9D12B
:102D9C00E9E70A2023685A1C2260187070BD00BF36
:102DAC00AC5A0008CC5A00088C5A0008024B014659
:102DBC001868FFF79FBF00BF0C0000200EB44FF443
:102DCC00027100B59CB0ADF814106FF00041049185
:102DDC0007914FF6FF711DAB02900690084853F80F
:102DEC00042BADF81610006802A9019300F0B8FB93
:102DFC000022029B1A701CB05DF804EB03B0704704
:102E0C000C000020034611F8012B03F8012B002ABB
:102E1C00F9D17047F8B50E461446054618B18369CA
:102E2C000BB900F0A9F9214B9C422AD16C68A3691B
:102E3C00A360A3891A072ED5236963B3236920687D
:102E4C00F6B2C01A63693746984204DB214628461D
:102E5C0000F028F928BBA3680130013BA36023686C
:102E6C005A1C22601E706369984204D0A389DB0748
:102E7C0019D50A2E17D12146284600F013F990B126
:102E8C000FE00B4B9C4201D1AC68D0E7094B9C4244
:102E9C0008BFEC68CBE72146284600F00DF8002867
:102EAC00CCD04FF0FF373846F8BD00BFAC5A000805
:102EBC00CC5A00088C5A0008324B70B51D68064677
:102ECC000C4625B1AB6913B9284600F055F92E4BC9
:102EDC009C420FD16C68B4F90C309AB215072CD403
:102EEC00D00611D40922326043F04003A3814FF085
:102EFC00FF3070BD254B9C4201D1AC68EBE7244BF5
:102F0C009C4208BFEC68E6E7510712D5616B41B1F2
:102F1C0004F14403994202D0304600F01BFA00231E
:102F2C006363A38923F02403A381002363602369D3
:102F3C002360A38943F00803A38123694BB9A389B8
:102F4C0003F42073B3F5007F03D02146304600F024
:102F5C00C1F9A28912F001030CD00023A3606369AC
:102F6C005B42A361236953B9B4F90C3013F08000B0
:102F7C00BAD170BD920758BF6369A360F2E7002015
:102F8C00F7E700BF0C000020AC5A0008CC5A000830
:102F9C008C5A00088A892DE9F041054610070C4629
:102FAC005AD44B68002B05DC0B6C002B02DC002088
:102FBC00BDE8F081E66A002EF9D0002312F48052AD
:102FCC002F682B6033D0606DA3895A0705D56368D1
:102FDC00C01A636B0BB1236CC01A00230246E66A5D
:102FEC00216A2846B047431CA38906D129681D29AC
:102FFC004BD82B4ACA40D60747D5002262602269BB
:10300C00D904226004D5421C01D12B6803B9606538
:10301C00616B2F600029CAD004F14403994202D09D
:10302C00284600F097F900206063BDE8F081216A22
:10303C0001232846B047411CC6D12B68002BC3D0B6
:10304C001D2B01D0162B01D12F60B0E7A38943F0C3
:10305C004003A381BDE8F0810F69002FA7D093072F
:10306C0018BF00230E6808BF4B69A6EB07080F605A
:10307C008B60B8F1000F9ADD43463A46216A284628
:10308C00A66AB047002807DCA38943F04003A3815C
:10309C004FF0FF30BDE8F0810744A8EB0008E8E7EB
:1030AC000100402038B50B6905460C46DBB118B160
:1030BC0083690BB900F060F80C4B9C4209D16C6829
:1030CC00B4F90C307BB121462846BDE83840FFF7F7
:1030DC0061BF074B9C4201D1AC68F1E7054B9C42A8
:1030EC0008BFEC68ECE7002038BD00BFAC5A000804
:1030FC00CC5A00088C5A0008014900F0A9B800BF4E
:10310C00B1300008002310B50446036043608360AF
:10311C0081814366C2810361436183611946082240
:10312C005C30FFF7DFFD054B24626362044BA36246
:10313C00044BE362044B236310BD00BFA53A0008A7
:10314C00C73A0008FF3A0008233B000870B5682511
:10315C004A1E55430E4605F1740100F047F904462A
:10316C0040B1002180E842000C30A06005F16802FB
:10317C00FFF7B8FD204670BD836910B5044633BB1C
:10318C008364C3640365124B124A1B6882629842C3
:10319C0004BF0123836100F01FF86060204600F03B
:1031AC001BF8A060204600F017F80022E060042114
:1031BC006068FFF7A7FF01220921A068FFF7A2FFB3
:1031CC0002221221E068FFF79DFF0123A36110BDCD
:1031DC00885A000805310008F8B51C4B07461E68D4
:1031EC00B36913B93046FFF7C7FF4836B468736844
:1031FC00013B03D5336833B13668F7E7B4F90C50AB
:10320C006DB16834F4E704213846FFF79FFF306056
:10321C000028F1D10C2304463B602046F8BD4FF644
:10322C00FF73E38101236566A3812560A56065605A
:10323C0025616561A5610822294604F15C00FFF750
:10324C0051FD6563A563A564E564E6E7885A00084B
:10325C002DE9F84380468946002600F1480414B94C
:10326C003046BDE8F883A5686768013F01D524683E
:10327C00F5E7AB89012B07D9B5F90E30013303D033
:10328C0029464046C84706436835EEE770B50E46FA
:10329C00B1F90E1090B0002914461D4607DA002330
:1032AC002B60B3891A0610D44FF480630EE001AA88
:1032BC0000F058FC0028F2DB029A02F47042A2F5EE
:1032CC0000535A425A412A60EEE740230020236003
:1032DC0010B070BD8B8973B59D0706460C4607D59B
:1032EC0004F14703236023610123636102B070BDC5
:1032FC0001AB6A46FFF7CAFF00990546304600F05D
:10330C0075F848B9B4F90C309A05EFD423F00303DF
:10331C0043F00203A381E3E70D4BB362A389206062
:10332C0043F08003A381009B20616361019B5BB12F
:10333C00B4F90E10304600F027FC28B1A38923F015
:10334C00030343F00103A381A3891D43A581CDE7AA
:10335C000531000838B50546002943D051F8043C26
:10336C000C1F002BB8BFE41800F063FC1E4A136856
:10337C00104633B9636014602846BDE8384000F04D
:10338C0059BCA3420BD921686218934201BF1A6839
:10339C005B685218226063600460EDE713465A685C
:1033AC000AB1A242FAD919685818A0420BD1206868
:1033BC000144581882421960DED1106852680144E9
:1033CC0019605A60D8E702D90C232B60D4E7206827
:1033DC0021188A4201BF1168526809182160626085
:1033EC005C60C9E738BD00BFA801002070B5CD1CDA
:1033FC0025F0030508350C2D38BF0C25002D06468D
:10340C0001DBA94203D90C233360002070BD00F00E
:10341C0010FC234A1468214691B9224C23681BB92D
:10342C00304600F029FB20602946304600F024FB92
:10343C00431C26D10C233046336000F0FBFBE4E741
:10344C000B685B1B1AD40B2B0FD90B60CC18CD500F
:10345C00304600F0EFFB04F10B00231D20F00700B9
:10346C00C31A1BD05A42E25070BD8C420BBF63682A
:10347C004B681360636018BF0C46E9E70C4649685B
:10348C00CAE7C41C24F00304A04205D0211A30461C
:10349C0000F0F2FA0130CDD02560D9E770BD00BF45
:1034AC00A8010020AC0100202DE9F0478E6882466F
:1034BC009E420C469146984635D88A8912F4906FF4
:1034CC0031D00223256809696F1A656905EB45053A
:1034DC0095FBF3F508F101033B449D4238BF1D46B3
:1034EC00530531D52946FFF781FF064650B90C2309
:1034FC00CAF80030A3894FF0FF3043F04003A3819A
:10350C00BDE8F0873A46216900F06EFBA38923F4ED
:10351C00906343F08003A38126613E4426604646B7
:10352C006561ED1BA560464528BF464649463246B7
:10353C00206800F064FBA36800209B1BA360236839
:10354C001E442660BDE8F0872A4600F074FB064650
:10355C000028E1D121695046FFF7FCFEC7E70000C7
:10356C002DE9F04F9DB003938B8980461C060D46C8
:10357C0016460FD50B696BB94021FFF737FF286052
:10358C00286128B90C23C8F800304FF0FF30C4E094
:10359C0040236B610023099320238DF829303023BD
:1035AC004FF0010B8DF82A3037463C4614F8013B9E
:1035BC00002B3CD1B7EB060A0BD0534632462946BA
:1035CC004046FFF771FF013000F0A280099B534485
:1035DC0009933B78002B00F09B8000234FF0FF32C7
:1035EC0004930793059206938DF853301A93052292
:1035FC002178504800F0EAFA671C049BD8B9D90628
:10360C0044BF20228DF853201A0744BF2B228DF87B
:10361C00532022782A2A16D000210A20079A2746FE
:10362C003B780134303B092B50D9C9B111E0252B23
:10363C00C0D02746B9E73F4A3C46801A0BFA00F047
:10364C0018430490D3E7039A111D12680391002AC2
:10365C0001DB079204E0524243F002030792049309
:10366C003B782E2B0DD17B78791C2A2B32D1039BE6
:10367C0002371A1D1B680392002BB8BF4FF0FF33A3
:10368C0005932D4C03223978204600F09FFA38B16F
:10369C004023001B03FA00F0049B013703430493FF
:1036AC003978062225487E1C8DF8281000F08EFAF9
:1036BC00002835D0224BFBB9039B073323F00703BB
:1036CC0008330393099B4B4409936DE700FB0232CB
:1036DC000121A4E700230A24184605930F463A78E3
:1036EC000131303A092A03D9002BCAD00590C8E71A
:1036FC0004FB00200123F1E703AB00932A46114B96
:10370C0004A94046AFF30080B0F1FF3F8146D9D108
:10371C00AB895B063FF539AF09981DB0BDE8F08F5A
:10372C0003AB00932A46074B04A9404600F084F8EB
:10373C00EAE700BFEC5A0008F25A0008F65A0008F3
:10374C0000000000B53400082DE9F04791461F46F3
:10375C008A680B6906469342B8BF1346C9F8003015
:10376C0091F843200C46DDF8208012B10133C9F8E2
:10377C0000302368990642BFD9F800300233C9F8EB
:10378C000030256815F0060507D104F1190AE36825
:10379C00D9F800209B1A9D422ADB94F8433022680A
:1037AC00003318BF012392062FD404F1430239468B
:1037BC003046C047013022D02368E56803F0060389
:1037CC00042B18BF0025D9F800204FF0000908BFC2
:1037DC00AD1AA368226908BF25EAE5759342C4BFF8
:1037EC009B1AED181A344D451BD10020BDE8F0870B
:1037FC000123524639463046C047013003D14FF0C1
:10380C00FF30BDE8F0870135C1E73020E11881F8C1
:10381C0043005A1C94F845102244023382F843109A
:10382C00C3E70123224639463046C0470130E6D073
:10383C0009F10109D7E700002DE9F04317460A7E8C
:10384C0085B06E2A984606460C460C9B01F1430E39
:10385C0000F0BC801AD8632A2ED00AD8002A00F0B7
:10386C00C880582A00F08A8004F1420584F842206E
:10387C002AE0642A01D0692AF6D121681A6811F06D
:10388C00800F23D0111D1960136827E0732A00F0F4
:10389C00B48008D86F2A2AD0702AE5D10A6842F081
:1038AC0020020A6003E0752A21D0782ADCD1782224
:1038BC006F4984F8452064E01A6801F14205111D36
:1038CC001960136884F842300123A3E011F0400F13
:1038DC0002F104011960D7D0B2F90030002B03DAE1
:1038EC002D225B4284F8432062490A2217E02068AB
:1038FC00196810F0800F03D0081D18600B6806E0E3
:10390C0010F0400F01F104001860F7D00B886F2AFB
:10391C0014BF0A2208225749002084F84300656826
:10392C00002DA560C0F29C80206820F0040020606F
:10393C00002B3FD1002D40F095807546082A0BD105
:10394C002368DA0708D5236962689A42DEBF302300
:10395C0005F8013C05F1FF35AEEB05032361CDF80D
:10396C0000803B4603AA21463046FFF7EDFE0130AE
:10397C0055D14FF0FF3005B0BDE8F08381F84520FC
:10398C003C492268186812F0800F00F104051D6094
:10399C0001D0036802E05506FBD50388D00744BF6D
:1039AC0042F0200222601BB9226822F02002226021
:1039BC001022B1E77546B3FBF2F002FB1033CB5C7F
:1039CC0005F8013D03460028F5D1B7E708681A68E9
:1039DC0010F0800F496904D0101D1860136819602D
:1039EC0007E010F0400F02F1040018601368F6D0E5
:1039FC001980002375462361B1E71A68111D1960FF
:103A0C00156800216268284600F0E0F808B1401BF8
:103A1C00606063682361002384F843309FE7236967
:103A2C002A4639463046C0470130A2D023689B074E
:103A3C0007D5002504F11909E368039A9B1A9D42E6
:103A4C0005DBE068039B9842B8BF184693E7012357
:103A5C004A4639463046C04701308AD00135EBE73B
:103A6C00002BA7D10B7804F1420584F8423065E7AE
:103A7C000E5B0008FD5A000838B50023054C0546BE
:103A8C0008462360FEF716FA431C02D1236803B1E3
:103A9C002B6038BD8003002010B50C46B1F90E1018
:103AAC0000F0F0F80028ABBF636DA3891B1823F45A
:103ABC008053ACBF6365A38110BD2DE9F0411F4657
:103ACC008B890546DB050C46164605D502230022DC
:103ADC00B1F90E1000F068F8A389324623F4805334
:103AEC00A381B4F90E103B462846BDE8F04100F026
:103AFC0017B810B50C46B1F90E1000F055F8431C70
:103B0C00A38915BF606523F4805343F48053A381CC
:103B1C0018BFA38110BDB1F90E1000F013B800004E
:103B2C0038B50546084611460022054C22601A4657
:103B3C00FDF7BEFD431C02D1236803B12B6038BDD9
:103B4C008003002038B50023054C05460846236049
:103B5C00FEF7CAF9431C02D1236803B12B6038BDB0
:103B6C008003002038B50023064C05460846114654
:103B7C002360FEF7BCF9431C02D1236803B12B6010
:103B8C0038BD00BF8003002038B50023054C054626
:103B9C0008462360FEF7B0F9431C02D1236803B139
:103BAC002B6038BD8003002038B505460846114609
:103BBC000022054C22601A46FEF7A0F9431C02D1E4
:103BCC00236803B12B6038BD8003002010B5C9B247
:103BDC0002449042034601D1002010BD1C780130F4
:103BEC008C42F6D1184610BD10B5431E0A449142C2
:103BFC0000D110BD11F8014B03F8014FF7E78842D3
:103C0C0010B501EB020303D8421E99420CD110BD32
:103C1C009842F9D28118D21AD34200D110BD13F8B0
:103C2C00014D01F8014DF7E711F8014B02F8014F76
:103C3C00EBE770477047F8B5074614460E4621B9B6
:103C4C001146BDE8F840FFF7D1BB22B9FFF782FB64
:103C5C0025462846F8BD00F027F884420FD92146A6
:103C6C003846FFF7C3FB05460028F2D03146224602
:103C7C00FFF7BAFF31463846FFF76CFBE9E73546EC
:103C8C00E7E7000038B50546084611460022054C0A
:103C9C0022601A46FEF700F9431C02D1236803B1D7
:103CAC002B6038BD8003002051F8040C0028A0F1D3
:103CBC000400BCBF0B58C01870470000F8B500BF1B
:103CCC00F8BC08BC9E467047F8B500BFF8BC08BCF1
:043CDC009E46704749
:103CE00002030405060708090A0B0C0D0E0F10103D
:103CF000B000426F696C65723A2573257343007496
:103D00003A25732025734300683A25732025250042
:103D100070756D70313A25730070756D70323A258B
:103D200073004572726F723A25730048656C6C6F50
:103D300020776F726C6420004F4B32210D00646459
:103D400064310064646432006464643300646464F5
:103D50003400646464350064646436006464643709
:103D60000000000000000000000102030406070834
:103D7000090000000001020304BF00030304040360
:103D800005050B10FFFC09FD09FE019403930B755B
:103D90002005008C192108928719071A01220A456B
:103DA000B61912164928002317B77D5991602418B7
:103DB000099D22C148E81409468291602404240D1B
:103DC000C67D5942D989C8E92614012513A785392A
:103DD000C2502C94A218148684A158282802260FB9
:103DE00087855933A95848194944A28900270742B1
:103DF000AF199600280CB47659129144A49B48261A
:103E0000290DB4761932914CA48B4822022A0A5506
:103E1000A6592911CB44012B0B778D79E1B45B387E
:103E20000D002C09437639124A08002D0616A519F3
:103E3000062E06228719042F10C774B98A52A1547E
:103E400028154A85522900300DA7855933891ADF74
:103E5000246A23003109A6865922A27E32320CA69A
:103E60008539141149A8A6A301330FA685391491E9
:103E700050692A14922414003411A78599C2192D6F
:103E8000220A49449298E42824350FA6851987A070
:103E9000B022122A92241400360FA6855914995084
:103EA00022999038492800370CA6851937A14CA8CB
:103EB0004DA804380EA685391411938422E224A15A
:103EC00000390DA6853914114F92A24C42023A07CF
:103ED00072871964023B0A937639EA300925043C5B
:103EE0000D788CB9B34539600E9803063D084795A7
:103EF000197784033E0E788D1973C01C300708674C
:103F0000AB003F0F96851915D14C289AC961421113
:103F10000040139785392459243489483245229228
:103F2000243309004111998439E5A9442811C66256
:103F30004A27998401421398841927994426914964
:103F40004C32894C223B4800430E97855993888810
:103F500046D52C125100441398841936919A442660
:103F60009149641299442431014513988419878832
:103F70004C2293488244495026911D06461298844B
:103F80001987884C229348824449502CAD0147142C
:103F90009984599490682294C8017280E82892C943
:103FA0002C004813998419148A4C2413C944279966
:103FB0004826924918490996851926A13E194A139F
:103FC0009984795639400E90034432914C2493D50C
:103FD000004B1299841994919A44482D8A6422992D
:103FE0000A69004C0D98841945B16E1299447618EF
:103FF0004D16998419B3894C34194D46928848124C
:1040000011C9443209034E17998419238A4C34127A
:104010008D5422224944241A89262409004F0E98DF
:104020008459349144C8A34424230150119884191D
:1040300027994426914944A29A585A035112B874B8
:1040400059349144C8A34424A38A229209005211EE
:104050009984193725994826522B8A642AA401533A
:104060000D9785399451ADDA569A5000540D9884C5
:1040700019878984A226D695045515998419148A1E
:104080004C2413C94432914C2413C964250056139F
:10409000998419148A4C2413C9548412A1443A9E59
:1040A000015718998419148A4C2489882411912461
:1040B000229A8C262399482601580F988419A3899F
:1040C000481B554A1369190D59149A8319248A50AB
:1040D00026128AA474801C2287884D005A0E978568
:1040E0001907194928152AD10E025B09B476192639
:1040F000FD89005C10C7751952B1542C154BC5527F
:10410000B154005D09B4761924FDC9005E0945AEBD
:1041100059B18964165F071974190701600723BE36
:10412000192201610E788439758058649149442BB5
:10413000036212A88419632DA391442691496492C5
:10414000516502630F7884599488A848960364A245
:104150000A006412A8849963A589D244269149640F
:1041600012D1CA00650F78845934914478A8034469
:10417000A30A00660CA7857924A9CC26D5CD0267B1
:1041800012A86C3993D2442691496412D18A58A955
:10419000046815A9841973801C200748662335918B
:1041A0004C2413C9240C690BA68559423984A827CD
:1041B000036A0AD56D79CA34FD66016B10A88419AB
:1041C000634D1335225122134946036C09A6851904
:1041D00044FDC9006D0C798419929244FF2F150596
:1041E0006E1079841993D9484D2413C944320903B8
:1041F0006F0E788459349144C82811C9480070154D
:10420000A86C1993D1482293C82432C9482219892D
:10421000A544007112A86C3993D2442691496412C6
:10422000D18A589500720B7785199345A9460B00E2
:10423000730C7785398718B94C3B4400740C97850B
:104240003952A149AA9388027511798419A3914C16
:104250002413C94432916836197610798419148A66
:104260004C2453114AA4E3190077137A8319C389A4
:10427000268992442D22098A84221100780F78849D
:1042800019A389484695D24492D1007913A96C1993
:10429000B3894C2453114AA4E3B11C20AD017A0820
:1042A00076851937BD1D7B0CB47659129116994845
:1042B0009B007C07B277191F027D0DB476193291ED
:1042C0003689488B08007E09369D39A2434802A0F2
:1042D00005008C19A109927719A4C86100A20EA645
:1042E0007D5942D989A824A1094500A30E97855973
:1042F0002415A9B026553A4400A40D678D193249FA
:10430000454693546402A5109A8419248A50269233
:1043100052CD62B3D804A609B2771987D16100A73C
:1043200014B87C592559484A8C8966A251902A8A2A
:10433000894A00A80824C619215100A912898C793C
:1043400043994424A1C4283192444D3803AA0A75E4
:104350009639438945255AAB0B578D5912BD49648F
:104360001201AC07379519E704AD0616A51906AE7C
:1043700011898C593515254A0A45444951939500B0
:10438000AF0614C61904B00A44AE3992902822012F
:10439000B10B778D79E1D82D1C871DB20A65A6393E
:1043A00093904CA454B30B65A6399390E248320124
:1043B000B40723BF391400B517A96C19A3914C2475
:1043C00013C9443291684499C80172801800B61725
:1043D000B77D398748A648522422499A0423C14808
:1043E00030128C840CB706229F1904B808436E392A
:1043F000211101B90964A73992911602BA0B759679
:104400003913C96C221917BB0C578D191299442600
:10441000D11300BC17A98439E269441892C54491AC
:10442000484518994522A2905502BD15A98439E244
:1044300069441892C544138B2C268A8962E202BE15
:1044400019AA8339E39030240C8A92244993883442
:10445000328C4464A14A5402BF0E96755942394CBD
:104460003612CA469202C014C9847972881C5C9EB6
:104470004A8412612CA674924918C113C9849962A6
:104480003942792A114A84B198D2492661C214C9A5
:10449000847953891C5A9E4A8412612CA6749249CD
:1044A00018C315C984799260440E2E4F2542893075
:1044B00016533AC9240CC414C98459A9A138B83C6C
:1044C000950825C2584CE9249330C514C98479E273
:1044D00050586A9D4A8412612CA674924918C613DA
:1044E000998459B7516C4A8945481249A818124D08
:1044F0000CC712D765599388A446D52C1211C3E274
:10450000E00800C817C8847972801C7688C82432F5
:1045100089244894046512D96100C916C884995247
:1045200039F0109149641249902809CA24B2C30095
:10453000CA17C8847943891C7488C82432892448DE
:1045400094046512D96100CB17C8845989A138EC4D
:10455000109149641249902809CA24B2C300CC0CB6
:10456000C685395239C424D42703CD0BC68579EAD0
:104570001093509F0CCE0CC685592389D824D4277C
:1045800003CF0CC68539A1EC0093509F0CD0129834
:10459000841936919A446692C8243289486202D1BD
:1045A0001BC984799260440E1D5164A29168A412C3
:1045B00011492222D14834214900D212C8845972AB
:1045C000801C4C1349843C4A44321200D311C884E5
:1045D00099523998269208799488642400D412C894
:1045E000845943891C4A1349843C4A44321200D5F9
:1045F00013C884599258440EA68924421E252219B4
:104600000900D612C8845989A13894269208799451
:1046100088642400D70D768D19C1918426A38886DD
:1046200001D816A884F98050494514214528214A0B
:10463000A8261149222400D918C9847972881C4AF5
:10464000A1C84432914C2413C94432914C5602DA29
:1046500017C98499623998429189642299482692AF
:1046600089642299AC04DB18C9847953891C48A158
:10467000C84432914C2413C94432914C5602DC197F
:10468000C98479A168280EA4506422994826928989
:1046900064229948262B01DD18CA83B972801C81D7
:1046A0004411CA444291940E9043E410B10900DED3
:1046B0001098841954B14926914944A29A9408DF6C
:1046C0001298845934912E32919A442691442A1397
:1046D00000E011A8845972801C5A07884516994435
:1046E000B432E111A884995239B40E108B2C32895E
:1046F000686500E211A8845943891C58078845164B
:104700009944B432E312A884599258440EAD03C4BC
:10471000228B4C225A19E412A8845989A138B00E70
:10472000108B2C3289686500E511A88479D2505429
:1047300058078845169944B432E6117984398B13A9
:10474000612C7218054512C90A00E714B86459941F
:1047500088A848960364A2621C2007446700E812F8
:10476000A8845972801C4C134984873A4034AA00AB
:10477000E911A884995239982692080F75806854D7
:1047800001EA12A8847943891C48134984873A4076
:1047900034AA00EB12A8845989A138942692080FF4
:1047A0007580685401EC0BA68539523984A827031B
:1047B000ED0AA68579EA10A29E0CEE0CA685392397
:1047C000891C40D49301EF0BA68539A1EC00A29E71
:1047D0000CF012A8841913E14C242CA908192522E5
:1047E000190900F114A984799260440E9DCC466A9F
:1047F00022994826924918F211A8845972801C4CBB
:104800001349848C12918C04F311A884995239981D
:10481000269208192522190900F411A884794389E0
:104820001C481349848C12918C04F512A884599267
:1048300058440EA68924424689484602F612A884A6
:104840005989A13894269208192522190900F70DD3
:10485000788C796239F010078A6500F811788459EC
:1048600094884822B2484C1291244202F915A98436
:104870007972881C3A1AC94432914C241389669380
:1048800001FA14A98499623978349289642299488A
:104890002612CD2603FB15A9847953891C381AC921
:1048A0004432914C241389669301FC15A98459A9BB
:1048B000A13874349289642299482612CD2603FDCA
:1048C00016D96CB9623974369189642A4289743C6C
:1048D0009603A43500FE16C86C196395D14822933F
:1048E000C82432C948221989A54400FF18D96C7917
:1048F000A168280E9C4D6422998A50221D8FE500E4
:10490000690D0000000004FFFF0000BF0003020368
:1049100004030404070B00FE06FE07FE013C028DA3
:1049200007FB200500A603210739A36350022207D5
:104930009BB223B1042310C59EA7942483524A92AC
:104940004129250900240BC49E2B1A4253A225009D
:10495000250E3EA2634BA229D392214A3205260B93
:1049600036A24B4BB528D1A225270519B363280BD6
:104970004B9B2B8992A8166501290CCB9A238BB2ED
:10498000A8122511002A0A25AE2B52A42C49002B6F
:104990000A2DA62B8C06298C002C079A9A275100E9
:1049A0002D068CAE63082E0511A3432F0C4E9E37A7
:1049B000AC866998862900300ABCA247893C250A42
:1049C000003109BCA22BD9BA0C01320ABCA247891A
:1049D000B2A86D08330BBCA24789B24494120534C7
:1049E0000C3DA22F93925232686102350BBCA26338
:1049F000D0B2311B1200360BBCA267C8B22592128E
:104A000005370BBCA26390B2288BB208380CBCA24D
:104A10004789A44489A44401390BBCA24789A464F2
:104A2000CB86043A0629A343113B08B29AA79628DD
:104A3000003C07ABA62BA9153D089CAA630887007C
:104A40003E082BA723AB94003F09B4A24789DA8123
:104A500008400D469E6BCAA421E9D3122F00410CD9
:104A600036A2674CA2D210552401420C35A26388AD
:104A70002A53251A1400430AB4A24789B452A2004B
:104A8000440D35A263882A511225D1A000450B356B
:104A9000A26350A2640AA361460C35A26350A264CB
:104AA0004AA26C02470BB4A24789B4644A14004876
:104AB0000C36A24352A26888BA48024909B5A263DB
:104AC00090C2A6414A0CB5A267C8C2244AA24802B5
:104AD0004B0D36A24391924C4CB22899024C09B529
:104AE000A2630B9B86014D0BB5A2235B964449B490
:104AF000454E0E36A24359A2488912A92225004FDD
:104B000009B4A247899C1205500CB5A263882A51AA
:104B1000326513005109BC9E47899C1269520C36BC
:104B2000A263C8A2A62D4AA6005309B4A267084DE5
:104B30004302540A35A2E3520A6B0B00550A36A20F
:104B40004352A27E9300560E36A24319B228C99250
:104B50002C093300570D36A24319B2A44F4996448D
:104B600000580BB5A243516A61962406590BB5A2B1
:104B700043D9925A982D005A09B4A263903A0D0273
:104B80005B084A9B63E98B005C0BCD9E234CC334CE
:104B90004CC3345D084A9B43E9CB005E089DB22BB1
:104BA0004B6A015F060E9AE300600692BA230A611F
:104BB0000A2DA2478D96285202620C3DA2430CA7F3
:104BC0004A94448302630AACA24789B42851006422
:104BD0000DBDA24B8C96288992285202650BACA27F
:104BE000478986244A1400660BBCA24B8986242B75
:104BF0000D01670CBD9AC7944449148DC904680A15
:104C00003EA2434DB7A897456909BDA22B47C4A64C
:104C1000416A09CB9A2B9B3A2D006B0B3DA243AC0A
:104C200028252D490C6C08BDA247EC69106D0A2E91
:104C3000A2438992FE8B006E0A2EA223D1A25E1699
:104C4000016F09ACA247894C8902700E3D9A2391ED
:104C50002A51122553362400710CBD9AC794444939
:104C6000148DD900720AADA22359C2DA90007309DB
:104C7000ACA26708C52101740CBDA227CC86282CE4
:104C8000450A0075092EA24391FAA604760C2EA2BD
:104C90004352B228C9923002770C2EA22349969E25
:104CA000922C8900780A2DA243516A95C400790E8E
:104CB0003D9A4351A2244AA2488B34007A09ACA2FF
:104CC00063889A06017B0A4B9B2B892A59540B7CDB
:104CD00006499BE3017D0B4B9B238B6A495489005A
:104CE0007E0894AE27511200A00500A603A1073943
:104CF0009B231904A20BC49E2B8B862C9CB204A36D
:104D00000C3EA26B0A072D0DB36108A40B2DA62340
:104D10004BA6245AB200A50D3DA2234B2A83140DA5
:104D200052B600A607499B631A02A70CC49E6708E7
:104D300095484AC42101A8060BB72309A90E3EA233
:104D40004B8B92C412294A299300AA08ACA6635C33
:104D5000C221AB091EA64719124911AC071DAA634F
:104D6000100BAD068CAE6308AE0F3EA24B8B926467
:104D7000502C8912651200AF068CB66308B0089CEF
:104D8000B247891205B10B35A22B8C062907060103
:104D9000B20723AF67A90CB30823AF63C91600B4E9
:104DA0000612B74701B50B3E9A4391FAB45443003B
:104DB000B60F469E67587A52B2244BB2245204B7BB
:104DC0000511AB43B8079B9A275B00B90723AF4394
:104DD000AA0CBA09ACA64789127508BB0A9EA6435D
:104DE0009194215100BC0F3EA243CD9228199228E4
:104DF0005192210CBD0E3EA243CD92281926A594B6
:104E00004403BE0F3EA263CCA224514A89920C6196
:104E100000BF0A3C9A2B07B2A84501C00E4EA22B38
:104E2000CEA131894A43549104C10E4EA22FCCB178
:104E300031894A43549104C20F4EA22B4C72684CE4
:104E4000A2D210552401C30F4EA22B89921C1A9393
:104E5000A834441549C40D46A2A70E8D49541AA280
:104E60008A24C50F4EA22F4CC26C4CA2D2105524DE
:104E700001C60A36A26790B4E4D434C70CC49A477A
:104E800089B452A2251200C80D4DA22B8D07254AC8
:104E9000A6301A06C90D4DA2AF0E0C4A944C6134CF
:104EA0000CCA0E4DA22B4BE2418992298C8601CB74
:104EB0000C45A2A73C28513285D130CC0C4DA227FD
:104EC000CD81410A9B0601CD0B4DA2AF0E0C52D8ED
:104ED0003408CE0C4DA22B4BE2410A9B0601CF0AAF
:104EE00045A2A73C4861D320D00D35A26388A221FA
:104EF0002925D1A000D1124EA22B89921C519628AF
:104F000052A244AA480900D20BCCA2278C95C829EA
:104F10005100D30BCCA2AB0E289153A200D40BCCE2
:104F2000A2AB922A9153A200D50CCCA227516225A4
:104F3000724A1400D60BC4A2238995C8295100D700
:104F40000A2DA6234B6A955A00D80D36A24B295537
:104F50002425AA241200D90C4EA22BCE114989FA7D
:104F60004D02DA0C4EA22FCC214BD46F1200DB0D78
:104F70004EA22F4C724052A27E9300DC0C46A2A798
:104F80008E484AD46F1200DD0C4DA2AF0E285B5242
:104F90000BB305DE0A35A2439C2A533601DF0C36DB
:104FA000A24B8B2A529654A604E00C45A227CD11A1
:104FB000355AA24809E10C45A2AF8EA8D112454A44
:104FC00000E20D45A22B4B72408D96285202E30C55
:104FD00045A2A73BA2464B142901E40C3DA2A70E13
:104FE000A8D112454A00E50E4DA22B4BB21C51A38D
:104FF000258A9400E60B2EA24799926498A245E771
:105000000BBC9A4789B428D11209E80AC4A2278C9C
:1050100095681807E90AC4A2AB0E28D1300EEA0B36
:10502000C4A2274A62251AC601EB0ABCA2238995AD
:10503000681807EC0A45A227CD11B16910ED0A45A1
:10504000A2AF8E884D8300EE0B45A22B4B72406CB5
:105050001A04EF0A3DA2A70E884D8300F00CC4A2EB
:10506000434994D210991205F10D46A22B89921C46
:1050700049B4A89745F20BC4A2278C95C894280080
:10508000F30BC4A22F8A95C8942800F40CC4A2275D
:105090004A622532250A00F50CC4A2275162253246
:1050A000250A00F60BBCA2238995C8942800F70AAC
:1050B0002DA62B07061D8800F80C36A2379A124938
:1050C000892A8904F90B46A22BCE1153DF9400FAEA
:1050D0000B46A22FCC2145EA9B12FB0B46A22B4C80
:1050E00072C4D43725FC0A3EA2A78E98FAA604FD06
:1050F0000F559AAF0E284A94444914699106FE0E42
:105100004D9A430CA74A9444C9944D00FF0F4D9A01
:10511000A7AC2851122551A4451A0000000004FF35
:10512000FF0000BF0003030404040405140CF8FE90
:1051300008FE08FE0185030F08E3200500981421EE
:105140000982891407494C00220B45C81612CA2847
:10515000128A002311878878915828648A042321B1
:10516000535A2406240DB57958C1D885B644B9855B
:1051700000251889883AD1485A28120A86E29050A8
:10518000301409C52211610400260F888859435143
:10519000AC46324D28A2D101270842C91395080018
:1051A000280CA36954114944A7902800290DA3692C
:1051B00014215148A2252209012A0844C93592D355
:1051C000002B0B778878E1B45B380D002C0842691E
:1051D000141409002D0612B913022E062289140494
:1051E0002F0FA668B7C168301A8C06A3C1280030FB
:1051F0000D878858B3141937492C36023108838A31
:105200001813FD00320C8689189598504D169B197D
:10521000330C86891855A18428155E00340F8788C1
:1052200098C259442451921CA51200350B858A1846
:10523000C6206D26B300360F87885815A1D422A347
:105240004962220A00370D8689184699302813CA08
:105250006600380F868938145145428A28912414F3
:1052600000390F8788382459444693588592120094
:105270003A0762891444023B09826914448A040093
:105280003C0A7689B84191B26A003D084699187681
:10529000A8013E0B76891851B1926214003F0D852A
:1052A000891694904CA4268788004015898979C472
:1052B000A024429184429288482299C841340041F6
:1052C00010888878E2614418918944A698242A427B
:1052D0000C8689171511E9A2897401430B87895837
:1052E00015A154B3B800440C888919269944C89B69
:1052F000C404450B86891787A0B0225434460B8519
:105300008917371945A60D00470D87885815A154F0
:105310008D2611890A480B87891932B6038D9B00A7
:1053200049078289140F024A09A46856FA530500F6
:105330004B11878918B288282489D14A12918A682A
:10534000004C08868917427D344D0C88891AB39227
:10535000E942D957014E0E878919425A4922521102
:10536000D588024F0D89885935152957894C560221
:10537000500C8689178710CB212254045116AA6835
:10538000594599482A914AA412A94826AC43EA00F3
:105390000900520F87891825159144A92411A9885D
:1053A00006530C86883714E18C48145E00540A8832
:1053B0008818879858DF00550A878919327E9354D8
:1053C000005612888818D2882C240B4D6492A02491
:1053D00038960157178A881A22D96812924C42923D
:1053E000494832094D6822A148045810878818237B
:1053F000892836940E4921896800590E8888183307
:10540000892C260952C5DA005A0C868917B6996C80
:105410003493CD0C5B08A3691415FD325C0EA668AD
:1054200017E168381A8E86A3E1005D08A36914139A
:10543000FD525E0B769978416DA12CC1005F061577
:10544000781605600613FA1703610C668837B3886F
:10545000A4A2934400620B868918426145C4E90204
:10546000630965893636B51901640A8689982A2741
:105470004E9202650A6688371411E9302D660B8555
:105480008835141149A61300670B866938274E9298
:10549000A28402680B868918426145C4930069089A
:1054A000828914A243016A09A4685462919E0C6B1C
:1054B0000F86891742A58824240991242A036C07A2
:1054C0008289140F026D0F6A891B879288242289B2
:1054D000482292026E0966891815114F026F0C67F7
:1054E000883795498D56995400700B8669181511A7
:1054F000A78B5008710A866938274E92A20272095A
:105500006489159293260073096589173712CD02B5
:10551000740B848835220945A469007509668918C9
:10552000229E2405760D678817328928248A0D97D4
:1055300000771169881A22D148129A244D922623A5
:105540002500780C668816139598701451197910F7
:1055500087681732892824910D8752A110007A0993
:10556000668817B6D136037B0BA36954112D1191B0
:1055700044037C07A1691387017D0CA36914218969
:105580005288A205007E0A36A9382289920400A01A
:1055900005009814A109826914A248E410A20D859F
:1055A000897821D34C3689D02200A30B858A5813E1
:1055B000991249162BA411878818D1482C548A8532
:1055C00062A158A8120DA50F878818238928449C2A
:1055D000956A521900A607A169132402A70CA669AF
:1055E00038479AAD64235E00A80714FA17A100A9F2
:1055F0001188895934914462094A82938A48460243
:10560000AA0845C916B54301AB0E6688572992888A
:10561000524424898502AC07469918D60CAD06126F
:10562000B91302AE0C66A938944B6462925000AF75
:105630000614FA1704B00723E9131301B10B778896
:1056400078E1D82D1C871DB20854B115B41003B3EE
:105650000853B115A31901B40613FB1703B50B8644
:105660006918229E0E432100B613A5691887084BBE
:1056700028128A8422A14828128A04B70612BB186D
:1056800002B806226B1704B90752B015921CBA0A69
:1056900045C8361309453201BB10668817A1584426
:1056A0002409492411492804BC13888B1A42494C07
:1056B000144B8A4892442911513500BD12898B1A26
:1056C00042514C9618AA24868212911A01BE128861
:1056D0008B1A335148220B462226514A44540DBF9F
:1056E0000C85695672884CA4268A10C01198885877
:1056F00063F130228CC84422534C1215C111988892
:105700007853F130228CC84422534C1215C21198A0
:10571000885854F130228CC84422534C1215C311BE
:1057200098885854F130228CC84422534C1215C426
:1057300011988858A9E2614418918944A698242AAE
:10574000C51198887862F130228CC84422534C12DB
:1057500015C6108A889BC671441CA185A4C5985A99
:1057600001C70DA7695815A154B3B8161601C80C86
:10577000968957B1435058112A1AC90C968977A1B6
:10578000435058112A1ACA0C968957A243505811EF
:105790002A1ACB0D968937A1C82128AC08150DCC43
:1057A00008938A1413FD01CD0893891415FD02CEC8
:1057B00009948A1414917E01CF0A948A14A188480E
:1057C000BF00D0118988393625E149229408253255
:1057D000910900D10F9789591421AD2411A9886A24
:1057E0004401D20E998899E19A8A94AB44262B0100
:1057F000D30E9988B9D19A8A94AB44262B01D40E42
:10580000998899D29A8A94AB44262B01D50E99880F
:1058100079C49A8A94AB44262B01D60F998879A132
:10582000604D45CA5522939500D70E768918C14818
:105830002836138E528201D81189885917994466E7
:1058400092504436894C7202D90B9789592319BF5B
:10585000492A00DA0B9789791319BF492A00DB0B13
:105860009789591419BF492A00DC0B9789592932A5
:105870007E935400DD0F988878A39944169304A969
:10588000626D00DE0D868917C28A88E510110A0153
:10589000DF118789382451482292C42413518D3254
:1058A00001E00C768857C1594452D14922E10C7667
:1058B0008877A2594452D14922E20C7688576B115D
:1058C0004945278900E30C768837A4594452D149C9
:1058D00022E40D768837A1D02C22A9E82411E50C0A
:1058E000768857B2594452D14922E60E69883A4B1C
:1058F00091894C74B0CC2605E70B85693636B5190D
:10590000292801E80B768857418A88749816E90B94
:10591000768877318A88749816EA0B768857328AA7
:1059200088749816EB0C768837A11045443A4C0BD6
:10593000EC07738A14137DED0873891415BD00EE0E
:1059400009748A1414915E00EF0A748A14A18848BD
:105950002F00F00FA78897D15849E920A2314D2A8E
:1059600000F10A768938948A882701F20D778877C2
:10597000C1CAA446AB4C2A00F30D778877C1CAA4EC
:1059800046AB4C2A00F40D778877B2CAA446AB4CDC
:105990002A00F50D778857A4CAA446AB4C2A00F616
:1059A0000D7788574995498D56995400F70B76899C
:1059B0005871143B420C00F80D6788370749E51011
:1059C000A91C2400F90A76893823114F9202FA0A99
:1059D00076895813114F9202FB0A76893814114FB9
:1059E0009202FC0B768938A18888274901FD10971F
:1059F00068572399441492C88643A95008FE0DA6FF
:105A00006918426145C4E9221402FF1197685729B9
:105A100032892824910D8752A1100000000004FF54
:105A2000FF0000007D2700082528000881270008C6
:105A30001815E215AE154015A115C015A615A2152D
:105A40002F15F8160015271581161815AE15A5196E
:105A5000FF1815A115C019FF1815A015C819FF18B2
:105A600015A415AF19FF1815AE15A519FF000000F4
:105A7000000196320101327800093D0000042850EF
:105A8000100804008000400010000020000000000A
:105A90000000000000000000000000000000000006
:105AA00000000000000000000000000000000000F6
:105AB00000000000000000000000000000000000E6
:105AC00000000000000000000000000000000000D6
